:020000040800F2
:1000000048350020990100081D080008190800085B
:100010001B0800088D03000885120008000000007E
:100020000000000000000000000000008D0A000831
:100030004305000800000000950800088F0A00082A
:10004000B3010008B3010008B3010008B3010008C0
:10005000B3010008B3010008B3010008B3010008B0
:10006000B3010008B3010008B3010008B3010008A0
:10007000B301000891030008B3010008B3010008B0
:10008000B3010008B3010008B3010008B301000880
:10009000B3010008B3010008B301000845050008DA
:1000A000B3010008B3010008B3010008850B000884
:1000B000A90B0008B3010008C10B0008B301000838
:1000C000B3010008B3010008B3010008B301000840
:1000D000B3010008B3010008B3010008B301000830
:1000E000B3010008B3010008B301000800F002F8F2
:1000F00000F043F80AA090E8000C82448344AAF17F
:100100000107DA4501D100F038F8AFF2090EBAE87C
:100110000F0013F0010F18BFFB1A43F0010318473B
:10012000781C0000981C0000103A24BF78C878C1E1
:10013000FAD8520724BF30C830C144BF04680C60ED
:10014000704700000023002400250026103A28BF35
:1001500078C1FBD8520728BF30C148BF0B60704739
:100160001FB500F073F804000020002101F04EFCE0
:10017000401C60601FBD10B510BD00F0D1F81146E5
:10018000FFF7EEFF01F054FB00F0EFF803B4FFF7C8
:10019000F2FF03BC00F0F4F8094880470948004723
:1001A000FEE7FEE7FEE7FEE7FEE7FEE7FEE7FEE727
:1001B000FEE7FEE704480549054A064B7047000084
:1001C000950A0008ED000008482F0020483500205F
:1001D000483100204831002010B500F037F8001DEC
:1001E00010BD00BF2918000002F0FF0343EA0322FC
:1001F00042EA024200F030B84FF0000200B5134668
:1002000094469646203922BFA0E80C50A0E80C5036
:10021000B1F12001BFF4F7AF090728BFA0E80C50E7
:1002200048BF0CC05DF804EB890028BF40F8042BE0
:1002300008BF704748BF20F8022B11F0804F18BF4D
:1002400000F8012B704770477047704700487047AF
:10025000082F00204FF000020429C0F0128010F097
:10026000030C3FF4CBAFCCF1040CBCF1020F18BF70
:1002700000F8012BA8BF20F8022BA1EB0C01FFF71F
:10028000BDBF5FEAC17C24BF00F8012B00F8012B41
:1002900048BF00F8012B704700487047E82E002047
:1002A0004FF0013C50F8042B51F8043B9A4221D105
:1002B000A2EB0C03934313EACC1317D150F8042B91
:1002C00051F8043B9A4215D1A2EB0C03934313EA75
:1002D000CC130BD150F8042B51F8043B9A4209D1AE
:1002E000A2EB0C03934313EACC13DBD04FF00000D6
:1002F000704700BFD01A01BAB1FA81F101F01801BC
:1003000022FA01F0CB40C1F12001DBB2C0B2C01A29
:100310002CFA01F3D11A914311EAC311E6D17047C7
:100320007546FFF7B9FFAE4605006946534620F013
:100330000700854618B020B5FFF73CFFBDE8204018
:100340004FF000064FF000074FF000084FF0000B91
:1003500021F00701AC46ACE8C009ACE8C009ACE844
:10036000C009ACE8C0098D46704710B50446AFF32C
:1003700000802046BDE81040FFF708BF704700002E
:1003800001491820ABBEFEE726000200FEE7000090
:100390000F494FF40070486092200863342048638E
:1003A0000C488268521C82608268032A0FD10022A6
:1003B000826003885B1C03800388C82B19BFC86B4D
:1003C00034304260028004BF82600348C8637047D3
:1003D000000002400C0000204400002001684FF69D
:1003E000FE72114001600021016041608160C160C6
:1003F0002E4A2F49904204BF486840F00F0022D097
:100400002C4A904204BF486840F0F0001BD02A4AB2
:10041000904204BF486840F4706014D0274A90426C
:1004200004BF486840F470400DD0254A904204BF94
:10043000486840F4702006D0224A904204BF4868C1
:1004400040F4700001D1486070471F4A904204D1C7
:10045000486840F07060486070471C4A111F904225
:1004600004BF086840F00F0014D0194A904204BF3E
:10047000086840F0F0000DD0164A904204BF0868AA
:1004800040F4706006D0144A904204BF086840F4FB
:10049000704001D108607047104A904218BF704701
:1004A000086840F4702008607047000008000240AF
:1004B000000002401C0002403000024044000240A4
:1004C000580002406C0002408000024008040240D4
:1004D0001C0402403004024044040240580402401C
:1004E000002A026814BF114322EA0101016070472B
:1004F00010B40268D1F820C08B686FF30E1243EA83
:100500000C03D1E904C44CEA040C43EA0C03D1F80F
:1005100018C043EA0C03D1F81CC043EA0C03D1F81D
:1005200024C043EA0C03D1F828C043EA0C031A4361
:100530000260CA6842600A6882604968C16010BC93
:100540007047704770B5402000F060F8002808BF81
:1005500070BD0022274D4FF40041284600F057F9A6
:10056000254801F046FA70B10122D102284600F078
:100570004EF90122D103284600F049F9BDE8704048
:10058000402000F03DB81D4E4FF40041304600F0D1
:1005900037F944004FF48041304600F031F92043F0
:1005A00044007114304600F02BF920434400F1144C
:1005B000304600F025F9204344003115304600F064
:1005C0001FF920434400B115304600F019F92043CB
:1005D00044001021304600F013F920434006040E79
:1005E0000821304600F00CF940EA0401024801F00D
:1005F000F9F9BEE700080140E42D0020000C01409D
:10060000014908607047000014040140054A0021B8
:100610001268054B02401B6803421CBF002A0121DF
:1006200008467047000401401404014083792149C1
:100630000268002B34D00B6823EA02020A60091D0D
:100640000A6803689A430A60017901F1804101F563
:1006500082310A6803681A430A60174B19680268F6
:10066000914319601A1D1168D0F800C021EA0C01ED
:1006700011604179102908D001F1804101F58231E2
:100680000A6800681043086070471968D0F800C015
:1006900041EA0C0119601168006808431060704756
:1006A000007900F1804000F58230016891430160DB
:1006B0007047000000040140080401408A0721F04F
:1006C000030101F1804101F58031120F0F23D1F8B0
:1006D00008C093402CEA03038B608B68904018435A
:1006E000886070472DE9F001CB78002203F00F0CF1
:1006F00013F0100F1CBF8B7843EA0C0C0B784FF0F3
:100700000F0613F0FF0F4FF0010518BF046819D052
:100710000F8805FA02F31F409F420FD1970006FA97
:1007200007F824EA08040CFA07F73C43CF78282F8F
:1007300008BF436102D0482F08BF0361521C082A3A
:10074000E6D304600A88FF2A87BF44680022BDE818
:10075000F001704702F108030F8805FA03F31F4008
:100760009F420FD1970006FA07F824EA08040CFA12
:1007700007F73C43CF78282F08BF4361CF78482F35
:1007800008BF0361521C082AE4D34460BDE8F001AD
:100790007047000070B4194A10F0004F14BFD369BD
:1007A0005368C0F303444FF4401C3CEA00054FEA91
:1007B000505C4FEA0C1C86B206FA0CFC16D010F402
:1007C000801F08BF23EA0C0303D0032505FA04F4B5
:1007D000A34343F07063002918BF4CEA030310F0F1
:1007E000004F14BFD361536070BC7047546823F04E
:1007F000706324F070645460EDE700000000014075
:100800000246002092680A4218BF01207047002A61
:1008100014BF016141617047FEE7FEE770470000C9
:1008200010B4C27801784FF00F0C012322B3184A9C
:10083000126801F1E02102F4E062C2F5E062120AFE
:10084000C2F104042CFA02F290F801C00CFA04FC84
:100850008478224042EA0C02120181F800240078D8
:1008600000F01F0103FA01F14009800000F1E020CF
:10087000C0F8001110BC704701F01F0003FA00F02F
:100880004909890001F1E021C1F8800110BC7047DD
:100890000CED00E070470000044A0029516914BFC4
:1008A000084321EA00005061704700000010024038
:1008B000044A0029D16914BF084321EA0000D0612D
:1008C0007047000000100240044A0029116914BF5B
:1008D000084321EA00001061704700000010024048
:1008E000044A0029916914BF084321EA000090617D
:1008F0007047000000100240044A0029D16814BF6C
:10090000084321EA0000D060704700000010024058
:100910000029018814BF41F4005121F400510180E5
:1009200070470029018814BF41F0400121F04001C7
:10093000018070472DE9F04393B04FF08008ADF887
:10094000448018208DF8470002208DF8460011A938
:100950003348FFF7C7FE334D00212846FFF7E1FF7C
:10096000DFF8C4904846FFF739FD314E2F48CDE9F6
:1009700000061020029034270024CDE90374CDE94D
:100980000584079408940994694648460A94FFF739
:10099000AFFD4FF44040ADF82C004FF48270ADF83D
:1009A0002E004FF00108ADF834806815ADF8360020
:1009B0000820ADF838000720ADF83040ADF83C0015
:1009C000ADF83240ADF83A400BA9284600F034F8B3
:1009D00000212846FFF79CFF01212846FFF7A1FFD1
:1009E000A88840F00200A8800D208DF840008DF806
:1009F00041408DF842408DF8438010A8FFF710FF6A
:100A00000C48016B21F0010101634763C6630122B9
:100A100002214846FFF764FD13B0BDE8F0830000F3
:100A20000008014000300140300002400C3001401D
:100A3000440000200000024010B402880B88B1F886
:100A400002C0CC8843EA0C03B1F804C002F441525E
:100A50004CEA040C43EA0C03B1F808C043EA0C0367
:100A6000B1F80AC043EA0C03B1F80CC043EA0C0326
:100A7000B1F80EC043EA0C031A430280828B22F4C1
:100A800000628283098A018210BC7047704700F0BF
:100A90007FBF0000374882B0016841F0010101606A
:100AA0004168354A11404160016821F4102121F06C
:100AB00080710160016821F480210160416821F4A6
:100AC000FE0141604FF41F018160002201920092FB
:100AD000016841F480310160016801F40031009146
:100AE0000199491C0191009919B90199B1F5A06FBB
:100AF000F2D1016811F4003F08BF009233D0012108
:100B000000911E490A6842F010020A600A6822F049
:100B100003020A600A6842F002020A60416841600A
:100B200041684160416841F480614160416821F45D
:100B30007C114160416841F4E8114160016841F075
:100B400080710160016811F0007FFBD0416821F0E5
:100B500003014160416841F002014160416801F0D8
:100B60000C010829FAD106494FF00060086002B074
:100B700070470000001002400000FFF80020024013
:100B800008ED00E00548406810B10549932008636E
:100B900004494FF6FB700880704700000C000020ED
:100BA00000000240102C01400449012048604FF031
:100BB00080414FF6F7700882704700000C0000205B
:100BC00070B5104D0121284600F00FFA002808BF2B
:100BD00070BD0D4C607890F001010C48617004D03C
:100BE00001228114FFF713FE04E000224FF480512C
:100BF000FFF70DFE0120E07001462846BDE8704079
:100C000000F0C9B8000800401800002000080140AA
:100C10002DE9F04F89B04FF48170ADF820004FF00E
:100C200018088DF8238002268DF8226008A95648FE
:100C3000FFF758FD0024B002ADF81400ADF81040E5
:100C40004FF0900A4FF4B077ADF81240ADF816406F
:100C50008DF8184004A94D4800F0C6FA0420ADF8FC
:100C600004004FF07009ADF806A0ADF80090012522
:100C7000ADF80860ADF80C404FF4807AADF8025042
:100C8000ADF80A40ADF80EA06946404800F0C0F942
:100C90004FF0200BADF800B0ADF8067069463B4848
:100CA00000F0F8F90121394800F081F88021374837
:100CB00000F081FA2021354800F085FA05218807E7
:100CC00000F089FA0021A80700F06FFA40F27120C5
:100CD000ADF81400ADF81040ADF81240ADF8164074
:100CE0008DF8184004A9800700F07EFA0420ADF8C2
:100CF0000400ADF80090ADF80860ADF80C40ADF818
:100D00000250ADF80660ADF80A40ADF80EA0694695
:100D1000000700F0BFF9ADF800B0ADF806806946F5
:100D2000A80700F0FCF90121880700F040F81C201A
:100D30008DF81C008DF81D508DF81E408DF81F5049
:100D400007A8FFF76DFD08210122C80600F058F939
:100D50001B208DF81C008DF81D508DF81E408DF85D
:100D60001F5007A8FFF75CFD01220421074800F08F
:100D700047F90121880700F011F80121034800F02C
:100D80000DF809B0BDE8F08F00080140002C0140CB
:100D9000C94301827047C943018270470029018815
:100DA00014BF41F0010121F00101018070470029C9
:100DB000B0F8441014BF41F40041C1F30E01A0F893
:100DC0004410704710B5A0F18041B1F5963159D06B
:100DD000B0F1804F6BD0A0F18041B1F580615CD063
:100DE000A0F18041B1F500616BD0A0F18041B1F577
:100DF000406170D0A0F18041B1F5805175D0A0F173
:100E00008041B1F5A0517AD0A0F18041B1F59A317D
:100E10007ED0A0F18041B1F5A6317AD0A0F1804119
:100E2000B1F5A83176D0A0F18041B1F5AA3172D0E8
:100E3000A0F18041B1F5C0516ED0A0F18041B1F573
:100E4000E0516AD0A0F18041B1F5005166D0A0F127
:100E50008041B1F5A0317DD0A0F18041B1F5A23142
:100E600079D0A0F18041B1F5A43118BF10BD0121A6
:100E70008804FFF741FDBDE8104000214FF48020B9
:100E8000FFF73ABD0121C802FFF736FDBDE810406B
:100E900000214FF40060FFF72FBD01210220FFF772
:100EA00013FD0021BDE810400220FFF70DBD012118
:100EB0000846FFF709FD0021BDE810400120FFF7BB
:100EC00003BD01210420FFF7FFFC0021BDE8104015
:100ED0000420FFF7F9BC01210820FFF7F5FC0021F1
:100EE000BDE810400820FFF7EFBC01211020FFF7FC
:100EF000EBFC0021BDE810401020FFF7E5BC01210C
:100F00002020FFF7E1FC0021BDE81040202006E092
:100F100007E011E01BE028E032E03BE044E0FFF7AF
:100F2000D3BC01214803FFF7E7FCBDE810400021D6
:100F30004FF40050FFF7E0BC0121C804FFF7DCFCD0
:100F4000BDE8104000214FF40020FFF7D5BC01217F
:100F5000080501E033E03DE0FFF7CEFCBDE81040BE
:100F600000214FF48010FFF7C7BC01214805FFF7AF
:100F7000C3FCBDE8104000214FF40010FFF7BCBCDB
:100F800001214020FFF7A0FC0021BDE810404020D7
:100F9000FFF79ABC01218020FFF796FC0021BDE8F5
:100FA00010408020FFF790BC01210802FFF78CFC65
:100FB000BDE8104000214FF48070FFF785BC01218F
:100FC0000804FFF799FCBDE8104000214FF4803081
:100FD000FFF792BC01214804FFF78EFCBDE81040EA
:100FE00000214FF40030FFF787BC038A002280897C
:100FF0000B4200EA01001CBF002801221046704786
:10100000002A828914BF114322EA010181817047BD
:1010100010B4028C22F001020284028C8388B0F8A2
:1010200018C00C882CF0730C44EA0C0C0C8922F0CC
:10103000020222434C882243A0F18044B4F5963446
:101040001CBFA0F18044B4F59A340DD0A0F18044C7
:10105000B4F5A0341FBFA0F18044B4F5A234A0F1D0
:101060008044B4F5A4340DD14C8922F00802224307
:101070008C8822F0040222438C8923F4407323439A
:10108000CC8923438380A0F818C0C9888186028454
:1010900010BC704730B4028C22F010020284038C22
:1010A000B0F804C0028B0D8822F4E6444FF6FF72BC
:1010B00002EA05252C430D8923F0200302EA0515D9
:1010C0002B434D8802EA05152B43A0F18045B5F569
:1010D00096351CBFA0F18045B5F59A3517D14D89DD
:1010E00023F0800302EA05152B438D8823F040038B
:1010F00002EA05152B438D892CF4406C02EA850524
:1011000045EA0C0CCD8902EA850242EA0C0CA0F8F3
:1011100004C00483C9880187038430BC704730B49D
:10112000028C22F480720284028C8388B0F81CC086
:101130000C882CF0730C44EA0C0422F4007C0D891A
:101140004FF6FF7202EA052545EA0C0C4D8802EACB
:10115000052545EA0C0CA0F18045B5F596351CBF78
:10116000A0F18045B5F59A3517D14D892CF4006C66
:1011700002EA052545EA0C0C8D882CF4806C02EA05
:10118000052545EA0C0C8D8923F4405302EA051528
:101190002B43CD8902EA0512134383808483C988D7
:1011A0008187A0F820C030BC7047028922F070020D
:1011B000114301817047028922F080020281028975
:1011C000114301817047828822F0700282808288F8
:1011D000114381807047028922F00702028102894F
:1011E000114301817047000010B40288234BDFF8DF
:1011F00090C0984218BF604511D0B0F1804F1CBF1D
:10120000A0F18044B4F5806409D0A0F18044B4F525
:1012100000641CBFA0F18044B4F5406403D14C8845
:1012200022F070022243A0F18044B4F580541CBF28
:10123000A0F18044B4F5A05403D0CC8822F44072CD
:10124000224302808A8882850A880285984218BFD4
:1012500060450DD0A0F18042B2F5A0321FBFA0F1D1
:101260008042B2F5A232A0F18042B2F5A43201D19F
:10127000097A01860121818210BC7047002C01404F
:1012800000340140FEE700002DE9F047134FB97824
:10129000D9B10024BC80FC803C81BC70DFF8408068
:1012A00000F07F092546FC6008EB85164A463F2181
:1012B0003046FEF799FF681C85B286F83F40142D32
:1012C000F2D3BC70FC60BDE8F087064908700120CD
:1012D000B8700548F860BDE8F087000018000020ED
:1012E000E428002028000020891200082DE9F04F92
:1012F00082B0DDF8348028B104882144448809B2E2
:10130000224412B24FEAD309B3EBC90F88BF09F1E7
:101310000109CC080194A1EBC40448B1B0F9040060
:10132000CD184618B542A8BF401A08DB83B207E0C3
:10133000C818B0F5C87FA8BFC1F5C870F6DA9BB26F
:101340000B9800260028C7BFC4F10700009002B028
:10135000BDE8F08FB018C728C4BF02B0BDE8F08F59
:10136000911901EB8104019804EBC10100EB8100AC
:101370002A49002501444C010098002B04EB800011
:10138000274C00F1085004EB411A0C992C4606FB3F
:1013900009173BD9691C00F0E00B89B2002D08BF8A
:1013A00017F801CB01F007051CF0800118BF0121DF
:1013B000B8F1000F13D0B8F1010F04BF90F800E0AE
:1013C0008EEA01010BD0B8F1020F04BF90F800E0E3
:1013D0000EEA010103D0B8F1030F02D006E001705C
:1013E00004E090F800E04EEA01010170001F00F0F7
:1013F000E0018B451CBF0AF1200082464FEA4C6198
:101400004FEA116C611C8CB29C42C3D3701C86B233
:101410000B9886429EDB02B0BDE8F08F44000020AE
:101420001C0000222DE9F04F8946117883B09846C0
:1014300014464FF0000C29B112F8011F0CF1010CF9
:101440000029F9D11FFA8CF7002F85B24FF0000662
:1014500019BFDFF850A04FF0090B03B0BDE8F08FC3
:1014600014F8010B202816D3203800EBC00080B2FE
:101470005044CDF800B0CDE9010806234A4629B210
:101480000020FFF733FFA81D85B2B5F5C87F24BF44
:1014900003B0BDE8F08F701C86B2BE42E0D303B04B
:1014A000BDE8F08F381A00082DE9F04784B04C48A9
:1014B00000F0A7FA01214B48FFF76CF94FF0020842
:1014C0008DF802804FF40040ADF800001020464E29
:1014D0008DF8030069463046FFF704F94EF61850C0
:1014E000ADF80000414D28248DF803406946284698
:1014F000FFF7F8F80122D1033046FFF788F91720EB
:101500008DF808008DF8098000268DF80A60012703
:101510008DF80B7002A8FFF783F94FF04009ADF882
:101520000C908DF80F4003A92846FFF7DBF8062141
:101530000120FFF7C3F88DF8046008208DF805003E
:10154000CDF800908DF806706846FFF76FF800F050
:101550002DFA2748DFF89C904FF0200A8680C6803D
:10156000068186700024C66009EB84100546524649
:101570003F21FEF739FE601C84B285F83F60142CD1
:10158000F2D31E208DF80C008DF80D808DF80E70B2
:101590008DF80F7003A8FFF743F9174C2046FFF7AB
:1015A00011FCC820ADF8040048F69F40ADF80000DB
:1015B000ADF80660ADF8026069462046FFF714FEFC
:1015C00001212046FFF7E4FB012211462046FFF7E8
:1015D00017FD01212046FFF7E1FB04B0BDE8F087CD
:1015E000E42D00200002300000080140000C014002
:1015F00018000020E4280020000800402DE9F84FE2
:10160000684800F0E8F90027674EDFF8A081DFF8AE
:10161000A091002804BF4FF0200ADFF898B10BD149
:10162000604800F0D1F9F168044639B388475D4855
:1016300000F0D1F90028F3D0F078002814BF00247E
:10164000BDE8F88FB08800232044A9FB00210909D8
:10165000494201EB810100EB810080B208EB80126E
:1016600004EB8400400001B21846FFF7DBFE601C6B
:1016700084B2142CE6D3F770BDE8F88FFEF7ACFD0A
:101680000068005D10F03E0F0CD030893F2828BF65
:1016900000F098F8F08808EB801130890C54401C59
:1016A0003081C4E7802C2ED004DC092C10D00A2C09
:1016B0001DD0BCE7812C3BD0822CB8D1B078022859
:1016C00056D20BF80040401CB0703B48F060AEE7CB
:1016D000307A00F00300D0F104024FF000001CBF8C
:1016E000F18808EB8113A2D031893F2902D300F0A1
:1016F00069F89CE703F801A0491C401C80B23181C5
:101700009042F1D393E7B780F78037812020B770FC
:101710000024009008EB841005463F21009AFEF754
:1017200063FD601C84B285F83F70142CF2D37EE711
:10173000B078B8B1B780F780378104F07F00B77018
:101740000024009008EB841005463F21009AFEF724
:101750004BFD601C84B285F83F70142CF2D3B77037
:10176000F76064E78BF800400120B0701348ADE7E4
:10177000134A9BF8010013460021E0FB02310909DE
:10178000A1EB811108443081B0882044A9FB0021DD
:101790000909494201EB810100EB8100F080B7703B
:1017A00045E70000E42D002018000020E428002078
:1017B000CDCCCCCC28000020D91800088912000814
:1017C000411004412DE9F041164C0025164E2581AB
:1017D000E088401CA6FB00210909494201EB810178
:1017E00000EB810080B2E080A188884218BFBDE88C
:1017F000F0810E4F202207EB80103F21FEF7F4FC12
:10180000E08807EB801080F83F50A088401CA6FBC2
:1018100000210909494201EB810100EB8100A08010
:10182000BDE8F08118000020CDCCCCCCE42800200D
:10183000012182B00846FFF72FF8012141F60D2063
:10184000FFF74EF801210846FFF732F80121042086
:10185000FFF72EF802208DF802004FF4C050ADF8CB
:10186000000010201A4C8DF8030069462046FEF750
:1018700039FF4FF49150ADF8000028208DF8030097
:1018800069461448FEF72EFF0022E1142046FEF7B9
:10189000BEFF0022A1142046FEF7B9FFFFF704FEA9
:1018A00000F056F80122D1022046FEF7B0FF4FF4B7
:1018B0007A7000F045F80022E1142046FEF7A7FFF9
:1018C0004FF47A7000F03CF8FFF798FE1B20F9E720
:1018D00000080140000C0140154930B48A7801F13C
:1018E0001003022A06D29854501C88701148C86010
:1018F00030BC70475A78104D00232C469C46E2FBC2
:10190000054C4FEA1C1CACEB8C1C62440A818A8893
:1019100010440A4AA2FB00C21209524202EB8202A0
:1019200000EB8200C8808B70CB6030BC7047000039
:1019300018000020D918000841100441CDCCCCCCAF
:101940000249486048680028FCD170470000002028
:101950000D484FF47A710068B0FBF1F0401EB0F111
:10196000807F24BF0020704720F07F40411E4FF051
:10197000E0204161054AF02182F8141D00218161B7
:101980000721016101207047300000200FE000E0D6
:1019900005480168491C01604168002908BF70477B
:1019A0004168491E416070470000002010B5FEF7F5
:1019B000C1FFFFF72DF9BDE8104042F6A001014834
:1019C000FEF71ABC440000200278811C515C521CB6
:1019D0000270084670470178407881420CBF0120B0
:1019E000002070474278831CD1544178491C4170D3
:1019F000704701784078401C81420CBF01200020D4
:101A000070470021017041707047000010B5002937
:101A10000AD00878002807D005487844FEF740FC33
:101A2000002801D0002010BD0248784410BD0000FD
:101A30009E0300009603000000000000000000006C
:101A40000000202020200020000000505050000006
:101A5000000000005050F850F8505000002078A0CE
:101A60005008D0000000C0C810204098180000E0C6
:101A700090A040A890680000602040000000000096
:101A80000010204040402010000040201010102086
:101A9000400000005020F82050000000002020F8F6
:101AA0002020000000000000006020400000000036
:101AB00000F800000000000000000000606000006E
:101AC000000810204080000000708898A8C8887026
:101AD0000000206020202020700000708808102066
:101AE00040F80000F81020100888700000103050F6
:101AF00090F810100000F880F0080888700000309E
:101B00004080F08888700000F808102040404000B5
:101B10000070888870888870000070888878081045
:101B20006000000060600060600000000060600015
:101B30006020400000081020402010080000000035
:101B4000F800F800000000804020102040800000D5
:101B500070880810200020000070880868A8A8700D
:101B6000000070888888F888880000F08888F088ED
:101B700088F00000708880808088700000E0908885
:101B8000888890E00000F88080F08080F80000F8FD
:101B90008080E0808080000070888080988870005D
:101BA00000888888F88888880000702020202020FD
:101BB0007000003810101010906000008890A0C0D5
:101BC000A090880000808080808080F8000088D805
:101BD000A88888888800008888C8A8988888000015
:101BE000708888888888700000F08888F0808080FD
:101BF000000070888888A890680000F08888F0A0AD
:101C000090880000788080700808F00000F820209C
:101C1000202020200000888888888888700000881C
:101C20008888888850200000888888A8A8D88800DC
:101C30000088885020508888000088885020202004
:101C4000200000F80810204080F8000038202020F4
:101C50002020380000008040201008000000E02014
:101C600020202020E000002050880000000000001C
:101C7000000000000000F8000040201000000000FC
:101C800000000000700878887800008080B0C88864
:101C900088F00000000070808088700000080868EC
:101CA00098888878000000007088F8807000003004
:101CB0004840E0404040000000007888780830004C
:101CC000008080B0C8888888000020006020202024
:101CD000700000100030101090600000404048502C
:101CE000605048000060202020202070000000008C
:101CF000D0A8A8888800000000B0C88888880000A4
:101D00000000708888887000000000F088F08080F3
:101D100000000000689878080800000000B0C88043
:101D200080800000000070807008F000004040E0FB
:101D30004040483000000000888888986800000013
:101D4000008888885020000000008888A8A85000DB
:101D50000000008850205088000000008888780823
:101D60007000000000F8102040F800001020204013
:101D700020201000002020202020202000004020D3
:101D80002010202040000040A810000000000000AB
:101D9000F8F8F8F8F8F8F800C81E0008000000206D
:101DA00044000000280100080C1F00084400002027
:101DB0000435000044010008100100004300000049
:101DC000F8FFFFFF0040404040404040404041415C
:101DD0004141414040404040404040404040404000
:101DE000404040404005020202020202020202029A
:101DF0000202020202202020202020202020200297
:101E00000202020202029090909090901010101026
:101E100010101010101010101010101010101010C2
:101E20000202020202028888888888880808080856
:101E30000808080808080808080808080808080822
:101E4000020202024000000000000000000000004A
:101E50000000000000000000000000000000000082
:101E60000000000000000000000000000000000072
:101E70000000000000000000000000000000000062
:101E80000000000000000000000000000000000052
:101E90000000000000000000000000000000000042
:101EA0000000000000000000000000000000000032
:101EB0000000000000000000000000000000000022
:101EC0000000000000000000000000000000000012
:101ED0000000000000000000000000000000000002
:101EE00000000000000000000000000000000000F2
:101EF000000000000000000000A24A0400000000F2
:0C1F0000000000000102030406070809AD
:04000005080000ED02
:00000001FF
